:100000000C94AA010C94D2010C94D2010C94D2014C
:100010000C94D2010C94D2010C94D2010C94D20114
:100020000C94D2010C94D2010C94D2010C94D20104
:100030000C94D2010C94D2010C94D2010C94D201F4
:100040000C94BB040C94D2010C94D2010C94D201F8
:100050000C94D2010C94D2010C94D2010C94D201D4
:100060000C94D2010C94D20100000008000201009F
:100070000003040700000000000000000308000067
:1000800000000001085F00000000030803000300F7
:10009000000508143E143E140408246A2B120005BF
:1000A00008631308646305083649562050010803A5
:1000B0000000000003081C22410000030841221C2C
:1000C0000000050828180E1828050808083E08082A
:1000D0000208B070000000040808080808000208C0
:1000E00060600000000408601806010004083E413A
:1000F000413E000308427F40000004086251494627
:10010000000408224149360004081814127F000434
:1001100008274545390004083E4949300004086174
:100120001109070004083649493600040806494900
:100130003E0002085000000000020880500000004D
:1001400003081028440000030814141400000308D6
:1001500044281000000408025909060005083E4919
:10016000555D0E04087E11117E0004087F49493652
:100170000004083E4141220004087F41413E000442
:10018000087F4949410004087F0909010004083E2D
:1001900041497A0004087F08087F000308417F4135
:1001A000000004083040413F0004087F0814630049
:1001B00004087F4040400005087F020C027F0508CC
:1001C0007F0408107F04083E41413E0004087F0977
:1001D00009060004083E4141BE0004087F09097673
:1001E0000004084649493200050801017F01010465
:1001F000083F40403F0005080F3040300F05083FE2
:100200004038403F05086314081463050807087068
:1002100008070408615149470002087F41000000B7
:10022000040801061860000208417F00000003086E
:1002300002010200000408404040400002080102A0
:100240000000000408205454780004087F44443817
:10025000000408384444000004083844447F000483
:100260000838545418000308047E05000004089858
:10027000A4A4780004087F040478000308447D40A7
:10028000000004084080847D0004087F102844009A
:100290000308417F40000005087C047C04780408C2
:1002A0007C04047800040838444438000408FC2422
:1002B0002418000408182424FC0004087C08040402
:1002C00000040848545424000308043F4400000478
:1002D000083C40407C0005081C2040201C05083CD0
:1002E000403C403C0508442810284404089CA0A039
:1002F0007C00030864544C000003080836410000E9
:1003000001087F00000000030841360800000408CF
:10031000080408040000000000250028002B00004D
:10032000000000240027002A00040404040404043C
:100330000402020202020203030303030301020494
:100340000810204080010204081020010204081057
:100350002000F60511241FBECFEFD8E0DEBFCDBFD1
:1003600011E0A0E0B1E0E6E3FCE002C005900D92F0
:10037000A831B107D9F721E0A8E1B1E001C01D9291
:10038000AC37B207E1F711E0CAEAD1E004C0219727
:10039000FE010E940A06C93AD107C9F70E94050565
:1003A0000C9419060C94000090E0FC01E35CFC4FF7
:1003B0002491FC01E75DFC4F8491882399F090E043
:1003C000880F991FFC01E15EFC4FA591B491FC01DF
:1003D000EB5EFC4F859194918FB7F894EC91E22BF2
:1003E000EC938FBF089590E0FC01E859FF4F3491E2
:1003F000FC01E35CFC4F2491FC01E75DFC4FE491C0
:10040000EE2309F43BC0332339F1333091F038F453
:100410003130A9F0323001F584B58F7D12C037300C
:1004200091F03830A1F03430B9F4809180008F7DA4
:1004300003C0809180008F77809380000DC084B5C9
:100440008F7784BD09C08091B0008F7703C0809101
:10045000B0008F7D8093B000F0E0EE0FFF1FEB5EE9
:10046000FC4FA591B4918FB7F894EC91611103C042
:1004700020952E2301C02E2B2C938FBF08953FB7BC
:10048000F89480911D0190911E01A0911F01B091DF
:10049000200126B5A89B05C02F3F19F00196A11D8C
:1004A000B11D3FBFBA2FA92F982F8827820F911D0A
:1004B000A11DB11DBC01CD0142E0660F771F881F51
:1004C000991F4A95D1F708958F929F92AF92BF924C
:1004D000CF92DF92EF92FF926B017C010E943F026C
:1004E0004B015C01C114D104E104F104F1F00E945C
:1004F0003F02DC01CB0188199909AA09BB09883E92
:100500009340A105B10570F321E0C21AD108E108BA
:10051000F10888EE880E83E0981EA11CB11CC1145E
:10052000D104E104F10419F7DDCFFF90EF90DF90E3
:10053000CF90BF90AF909F908F900895EF92FF92D1
:100540000F931F93CF93DF93E82EF62EC7E0D0E0F2
:10055000042F10E098010C2E02C0359527950A94BF
:10056000E2F7B901617077278E2D0E94F30161E0F7
:100570008F2D0E94F30160E08F2D0E94F3012197DF
:1005800048F7DF91CF911F910F91FF90EF90089561
:100590000F931F93CF93DF93182F062F60E0809166
:1005A00029010E94F301C0E0D0E020912B0130E04E
:1005B000C217D30784F4412F60912A01809128014A
:1005C0000E949E02402F60912A01809128010E9482
:1005D0009E022196EACF60E0809129010E94F301FA
:1005E00061E080912901DF91CF911F910F910C94CF
:1005F000F301DF92EF92FF920F931F93CF93DF935C
:10060000C82FD62EE82EE694E694E694F12CD82F47
:10061000D77060E0809129010E94F30100E010E0B2
:10062000DF5F80912B0190E008171907ECF40E159D
:100630001F0549F44D2F60912A01809128010E94E5
:100640009E024D2D08C040E060912A018091280152
:100650000E949E0240E060912A01809128010E9440
:100660009E020F5F1F4FDDCF60E0809129010E9445
:10067000F30161E0809129010E94F301EC2FF0E089
:10068000E85DFE4FD482DF91CF911F910F91FF90D3
:10069000EF90DF900895DF92EF92FF920F931F93F8
:1006A000CF93DF93C0E0D0E060E0809129010E9409
:1006B000F3017E0100E010E0DC2ED39480912B0149
:1006C00090E008171907BCF44D2D60912A01809124
:1006D00028010E949E02F701E85DFE4F448160916F
:1006E0002A01809128010E949E0288E0E80EF11CF8
:1006F0000F5F1F4FE3CF60E0809129010E94F3015B
:1007000061E0809129010E94F3012196C830D10552
:1007100059F6DF91CF911F910F91FF90EF90DF90ED
:1007200008952F923F924F925F926F927F928F9295
:100730009F92AF92BF92CF92DF92EF92FF920F9370
:100740001F93CF93DF93CDB7DEB727970FB6F894FB
:10075000DEBF0FBECDBF1C01412C512C3201439492
:10076000F10161911F01662309F4ECC06032C4F30A
:10077000605227E0629FB001112464587F4F47E028
:1007800050E081E291E00E941006C0902101D12C3E
:10079000A0902201B12C38E0A316B10449F084E600
:1007A000E82E81E0F82E28E330E03F832E832EC030
:1007B00008E310E0C801C8978C159D056CF400355E
:1007C00011053CF4F801E551FF4F6081802F0E9434
:1007D000F9020F5F1F4FEECF8091210160E0885C2E
:1007E0000E94F90200E010E09DC0203531054CF177
:1007F0000F5F1F4F2E813F810A151B05B4F32F5F3A
:100800003F4F3F832E833FEFE31AF30A8E819F8190
:10081000C8978C159D0504F78E81869586958695DB
:10082000282F30E03A83298300E010E02E813F81B9
:1008300025513F4F3C832B838E8187708F5F8D8343
:10084000D9CF08301105A4F6EB81FC81808190E0BE
:10085000002E02C0959587950A94E2F780FF0EC09E
:10086000F7012081D301C201002E04C0880F991F17
:10087000AA1FBB1F0A94D2F7822B0EC0D301C2015C
:10088000002E04C0880F991FAA1FBB1F0A94D2F71D
:100890008095F70190818923808360E08091290110
:1008A0000E94F301812C912C80912B0190E08816FD
:1008B00099060CF529813A818216930651F44D81EF
:1008C00060912A01809128010E949E02F7014081D7
:1008D00008C040E060912A01809128010E949E0298
:1008E00040E060912A01809128010E949E02FFEF62
:1008F0008F1A9F0AD9CF60E0809129010E94F301ED
:1009000061E0809129010E94F30172CF8191DF01A2
:1009100012978C9331E0ED37F307C1F70E944B0338
:100920000F5F1F4F8091210190E0801791070CF419
:1009300017CF62E370E080E090E00E946402EDE295
:10094000F1E0E4CF27960FB6F894DEBF0FBECDBF1F
:10095000DF91CF911F910F91FF90EF90DF90CF909B
:10096000BF90AF909F908F907F906F905F904F90CF
:100970003F902F9008951F920F920FB60F9211245F
:100980002F933F938F939F93AF93BF9380911901C0
:1009900090911A01A0911B01B0911C013091180196
:1009A00023E0230F2D3720F40196A11DB11D05C0B2
:1009B00026E8230F0296A11DB11D209318018093F4
:1009C000190190931A01A0931B01B0931C0180910F
:1009D0001D0190911E01A0911F01B091200101966F
:1009E000A11DB11D80931D0190931E01A0931F01B5
:1009F000B0932001BF91AF919F918F913F912F9123
:100A00000F900FBE0F901F901895789484B5826058
:100A100084BD84B5816084BD85B5826085BD85B5A2
:100A2000816085BD80916E00816080936E00109220
:100A3000810080918100826080938100809181009B
:100A4000816080938100809180008160809380002C
:100A50008091B10084608093B1008091B00081608A
:100A60008093B00080917A00846080937A008091B6
:100A70007A00826080937A0080917A00816080930E
:100A80007A0080917A00806880937A001092C10089
:100A9000809128010E94D40180912A010E94D401F2
:100AA000809129010E94D40161E080912A010E9475
:100AB000F30167E08BE00E94C80260E089E00E94D9
:100AC000C80261E08CE00E94C80260E08FE00E94F2
:100AD000C802C0E0D0E060E0809129010E94F301EB
:100AE0000CE211E06801E12CF12CBC2EB394809152
:100AF0002B0190E0E816F906B4F44B2D60912A0121
:100B0000809128010E949E0240E060912A0180911C
:100B100028010E949E02F6011082FFEFEF1AFF0AE1
:100B2000CC0EDD1EE4CF60E0809129010E94F3012C
:100B300061E0809129010E94F3012196C830D1051E
:100B400051F6F80111928F01F1E00C371F07C9F738
:100B50006FE08AE00E94C80264E08AE00E94C80256
:100B6000C0E0D0E068EE73E080E090E00E946402B4
:100B70000DE211E0F8018191DF0112978C9381E081
:100B8000ED37F807C1F7E0912B0188E0E89FF0010D
:100B90001124E85DFE4F13820E944B038CE091E02C
:100BA0000E94910368EE73E080E090E00E9464028E
:100BB000F80181918F0132978083F1E00D371F0793
:100BC000B9F7E0912B0188E0E89FF0011124E85D7E
:100BD000FE4F13820E944B0380E091E00E9491033C
:100BE000209709F4BFCF0E940000BCCF8BE0809318
:100BF00028018AE0809329018DE080932A0187E013
:100C000080932B01ECE2F1E0119281E0EC37F807E0
:100C1000D9F70895EE0FFF1F0590F491E02D099488
:100C2000FB01DC0102C005900D9241505040D8F705
:060C30000895F894FFCFC7
:100C36006E65772076767676767676006E657720A0
:080C460076767676767676006C
:00000001FF
